{
  "_format": "hh-sol-artifact-1",
  "contractName": "simpleNFT",
  "sourceName": "contracts/simpleNFT.sol",
  "abi": [
    {
      "inputs": [],
      "stateMutability": "nonpayable",
      "type": "constructor"
    },
    {
      "anonymous": false,
      "inputs": [
        {
          "indexed": false,
          "internalType": "address",
          "name": "owner",
          "type": "address"
        },
        {
          "indexed": false,
          "internalType": "uint256",
          "name": "tokenID",
          "type": "uint256"
        }
      ],
      "name": "Minted",
      "type": "event"
    },
    {
      "anonymous": false,
      "inputs": [
        {
          "indexed": false,
          "internalType": "address",
          "name": "sender",
          "type": "address"
        },
        {
          "indexed": false,
          "internalType": "address",
          "name": "receiver",
          "type": "address"
        },
        {
          "indexed": false,
          "internalType": "uint256",
          "name": "tokenID",
          "type": "uint256"
        }
      ],
      "name": "transfered",
      "type": "event"
    },
    {
      "inputs": [
        {
          "internalType": "address",
          "name": "to",
          "type": "address"
        },
        {
          "internalType": "uint256",
          "name": "tokenID",
          "type": "uint256"
        }
      ],
      "name": "approve",
      "outputs": [],
      "stateMutability": "nonpayable",
      "type": "function"
    },
    {
      "inputs": [
        {
          "internalType": "uint256",
          "name": "",
          "type": "uint256"
        }
      ],
      "name": "approved",
      "outputs": [
        {
          "internalType": "address",
          "name": "",
          "type": "address"
        }
      ],
      "stateMutability": "view",
      "type": "function"
    },
    {
      "inputs": [
        {
          "internalType": "uint256",
          "name": "nftID",
          "type": "uint256"
        }
      ],
      "name": "getApprovedAccounts",
      "outputs": [
        {
          "internalType": "address",
          "name": "",
          "type": "address"
        }
      ],
      "stateMutability": "view",
      "type": "function"
    },
    {
      "inputs": [
        {
          "internalType": "string",
          "name": "_tokenURI",
          "type": "string"
        }
      ],
      "name": "mint",
      "outputs": [],
      "stateMutability": "nonpayable",
      "type": "function"
    },
    {
      "inputs": [
        {
          "internalType": "uint256",
          "name": "tokenID",
          "type": "uint256"
        }
      ],
      "name": "ownerOf",
      "outputs": [
        {
          "internalType": "address",
          "name": "",
          "type": "address"
        }
      ],
      "stateMutability": "view",
      "type": "function"
    },
    {
      "inputs": [],
      "name": "tokenCounter",
      "outputs": [
        {
          "internalType": "uint256",
          "name": "",
          "type": "uint256"
        }
      ],
      "stateMutability": "view",
      "type": "function"
    },
    {
      "inputs": [
        {
          "internalType": "uint256",
          "name": "tokenID",
          "type": "uint256"
        }
      ],
      "name": "tokenURI",
      "outputs": [
        {
          "internalType": "string",
          "name": "",
          "type": "string"
        }
      ],
      "stateMutability": "view",
      "type": "function"
    },
    {
      "inputs": [
        {
          "internalType": "address",
          "name": "to",
          "type": "address"
        },
        {
          "internalType": "uint256",
          "name": "tokenID",
          "type": "uint256"
        }
      ],
      "name": "transferNFT",
      "outputs": [],
      "stateMutability": "nonpayable",
      "type": "function"
    }
  ],
  "bytecode": "0x6080604052348015600f57600080fd5b50600080819055506110e1806100266000396000f3fe608060405234801561001057600080fd5b50600436106100885760003560e01c806394ab67fe1161005b57806394ab67fe14610139578063c87b56dd14610155578063d082e38114610185578063d85d3d27146101a357610088565b8063095ea7b31461008d57806347944f51146100a95780636352211e146100d95780637d4061e614610109575b600080fd5b6100a760048036038101906100a29190610855565b6101bf565b005b6100c360048036038101906100be9190610895565b610325565b6040516100d091906108d1565b60405180910390f35b6100f360048036038101906100ee9190610895565b610362565b60405161010091906108d1565b60405180910390f35b610123600480360381019061011e9190610895565b61039f565b60405161013091906108d1565b60405180910390f35b610153600480360381019061014e9190610855565b6103d2565b005b61016f600480360381019061016a9190610895565b610635565b60405161017c919061097c565b60405180910390f35b61018d6106da565b60405161019a91906109ad565b60405180910390f35b6101bd60048036038101906101b89190610afd565b6106e0565b005b3373ffffffffffffffffffffffffffffffffffffffff166002600083815260200190815260200160002060009054906101000a900473ffffffffffffffffffffffffffffffffffffffff1673ffffffffffffffffffffffffffffffffffffffff1614610260576040517f08c379a000000000000000000000000000000000000000000000000000000000815260040161025790610b92565b60405180910390fd5b600073ffffffffffffffffffffffffffffffffffffffff168273ffffffffffffffffffffffffffffffffffffffff16036102cf576040517f08c379a00000000000000000000000000000000000000000000000000000000081526004016102c690610bfe565b60405180910390fd5b816001600083815260200190815260200160002060006101000a81548173ffffffffffffffffffffffffffffffffffffffff021916908373ffffffffffffffffffffffffffffffffffffffff1602179055505050565b60006001600083815260200190815260200160002060009054906101000a900473ffffffffffffffffffffffffffffffffffffffff169050919050565b60006002600083815260200190815260200160002060009054906101000a900473ffffffffffffffffffffffffffffffffffffffff169050919050565b60016020528060005260406000206000915054906101000a900473ffffffffffffffffffffffffffffffffffffffff1681565b60006002600083815260200190815260200160002060009054906101000a900473ffffffffffffffffffffffffffffffffffffffff169050600073ffffffffffffffffffffffffffffffffffffffff168373ffffffffffffffffffffffffffffffffffffffff1603610479576040517f08c379a000000000000000000000000000000000000000000000000000000000815260040161047090610c6a565b60405180910390fd5b3373ffffffffffffffffffffffffffffffffffffffff168173ffffffffffffffffffffffffffffffffffffffff16148061051157503373ffffffffffffffffffffffffffffffffffffffff166001600084815260200190815260200160002060009054906101000a900473ffffffffffffffffffffffffffffffffffffffff1673ffffffffffffffffffffffffffffffffffffffff16145b610550576040517f08c379a000000000000000000000000000000000000000000000000000000000815260040161054790610cd6565b60405180910390fd5b826002600084815260200190815260200160002060006101000a81548173ffffffffffffffffffffffffffffffffffffffff021916908373ffffffffffffffffffffffffffffffffffffffff16021790555060006001600084815260200190815260200160002060006101000a81548173ffffffffffffffffffffffffffffffffffffffff021916908373ffffffffffffffffffffffffffffffffffffffff1602179055507fe595d7c4753667edd2575e431096f1795bd17ceb345f3366d58770ba5d58b29033848460405161062893929190610cf6565b60405180910390a1505050565b606060036000838152602001908152602001600020805461065590610d5c565b80601f016020809104026020016040519081016040528092919081815260200182805461068190610d5c565b80156106ce5780601f106106a3576101008083540402835291602001916106ce565b820191906000526020600020905b8154815290600101906020018083116106b157829003601f168201915b50505050509050919050565b60005481565b6000805490506000808154809291906106f890610dbc565b9190505550336002600083815260200190815260200160002060006101000a81548173ffffffffffffffffffffffffffffffffffffffff021916908373ffffffffffffffffffffffffffffffffffffffff1602179055508160036000838152602001908152602001600020908161076f9190610fb0565b507f30385c845b448a36257a6a1716e6ad2e1bc2cbe333cde1e69fe849ad6511adfe33826040516107a1929190611082565b60405180910390a15050565b6000604051905090565b600080fd5b600080fd5b600073ffffffffffffffffffffffffffffffffffffffff82169050919050565b60006107ec826107c1565b9050919050565b6107fc816107e1565b811461080757600080fd5b50565b600081359050610819816107f3565b92915050565b6000819050919050565b6108328161081f565b811461083d57600080fd5b50565b60008135905061084f81610829565b92915050565b6000806040838503121561086c5761086b6107b7565b5b600061087a8582860161080a565b925050602061088b85828601610840565b9150509250929050565b6000602082840312156108ab576108aa6107b7565b5b60006108b984828501610840565b91505092915050565b6108cb816107e1565b82525050565b60006020820190506108e660008301846108c2565b92915050565b600081519050919050565b600082825260208201905092915050565b60005b8381101561092657808201518184015260208101905061090b565b60008484015250505050565b6000601f19601f8301169050919050565b600061094e826108ec565b61095881856108f7565b9350610968818560208601610908565b61097181610932565b840191505092915050565b600060208201905081810360008301526109968184610943565b905092915050565b6109a78161081f565b82525050565b60006020820190506109c2600083018461099e565b92915050565b600080fd5b600080fd5b7f4e487b7100000000000000000000000000000000000000000000000000000000600052604160045260246000fd5b610a0a82610932565b810181811067ffffffffffffffff82111715610a2957610a286109d2565b5b80604052505050565b6000610a3c6107ad565b9050610a488282610a01565b919050565b600067ffffffffffffffff821115610a6857610a676109d2565b5b610a7182610932565b9050602081019050919050565b82818337600083830152505050565b6000610aa0610a9b84610a4d565b610a32565b905082815260208101848484011115610abc57610abb6109cd565b5b610ac7848285610a7e565b509392505050565b600082601f830112610ae457610ae36109c8565b5b8135610af4848260208601610a8d565b91505092915050565b600060208284031215610b1357610b126107b7565b5b600082013567ffffffffffffffff811115610b3157610b306107bc565b5b610b3d84828501610acf565b91505092915050565b7f4e6f7420746865206f776e657200000000000000000000000000000000000000600082015250565b6000610b7c600d836108f7565b9150610b8782610b46565b602082019050919050565b60006020820190508181036000830152610bab81610b6f565b9050919050565b7f496e76616c696420616464726573730000000000000000000000000000000000600082015250565b6000610be8600f836108f7565b9150610bf382610bb2565b602082019050919050565b60006020820190508181036000830152610c1781610bdb565b9050919050565b7f7472616e73666572206661696c6564202c302061646472657373000000000000600082015250565b6000610c54601a836108f7565b9150610c5f82610c1e565b602082019050919050565b60006020820190508181036000830152610c8381610c47565b9050919050565b7f4e6f74206f776e6572206f7220617070726f7665640000000000000000000000600082015250565b6000610cc06015836108f7565b9150610ccb82610c8a565b602082019050919050565b60006020820190508181036000830152610cef81610cb3565b9050919050565b6000606082019050610d0b60008301866108c2565b610d1860208301856108c2565b610d25604083018461099e565b949350505050565b7f4e487b7100000000000000000000000000000000000000000000000000000000600052602260045260246000fd5b60006002820490506001821680610d7457607f821691505b602082108103610d8757610d86610d2d565b5b50919050565b7f4e487b7100000000000000000000000000000000000000000000000000000000600052601160045260246000fd5b6000610dc78261081f565b91507fffffffffffffffffffffffffffffffffffffffffffffffffffffffffffffffff8203610df957610df8610d8d565b5b600182019050919050565b60008190508160005260206000209050919050565b60006020601f8301049050919050565b600082821b905092915050565b600060088302610e667fffffffffffffffffffffffffffffffffffffffffffffffffffffffffffffffff82610e29565b610e708683610e29565b95508019841693508086168417925050509392505050565b6000819050919050565b6000610ead610ea8610ea38461081f565b610e88565b61081f565b9050919050565b6000819050919050565b610ec783610e92565b610edb610ed382610eb4565b848454610e36565b825550505050565b600090565b610ef0610ee3565b610efb818484610ebe565b505050565b5b81811015610f1f57610f14600082610ee8565b600181019050610f01565b5050565b601f821115610f6457610f3581610e04565b610f3e84610e19565b81016020851015610f4d578190505b610f61610f5985610e19565b830182610f00565b50505b505050565b600082821c905092915050565b6000610f8760001984600802610f69565b1980831691505092915050565b6000610fa08383610f76565b9150826002028217905092915050565b610fb9826108ec565b67ffffffffffffffff811115610fd257610fd16109d2565b5b610fdc8254610d5c565b610fe7828285610f23565b600060209050601f83116001811461101a5760008415611008578287015190505b6110128582610f94565b86555061107a565b601f19841661102886610e04565b60005b828110156110505784890151825560018201915060208501945060208101905061102b565b8683101561106d5784890151611069601f891682610f76565b8355505b6001600288020188555050505b505050505050565b600060408201905061109760008301856108c2565b6110a4602083018461099e565b939250505056fea264697066735822122047b40e7d752ab984722765976c010739613d851e4d46aadcc5929e7b1f56b8ab64736f6c634300081c0033",
  "linkReferences": {},
  "deployedLinkReferences": {}
}